:100000000C942C010C945D010C945D010C945D0129
:100010000C945D010C945D010C945D010C945D01E8
:100020000C945D010C945D010C945D010C945D01D8
:100030000C945D010C945D010C945D010C945D01C8
:100040000C945D010C945D010C945D010C945D01B8
:100050000C945D010C945D010C945D010C94B10154
:100060000C945D010C945D010C945D010C945D0198
:100070000C945D010C945D010C945D010C945D0188
:100080000C945D010C945D010C945D010C945D0178
:100090000C945D010C945D010C945D010C945D0168
:1000A0000C945D010C945D010C945D010C945D0158
:1000B0000C945D010C945D010C945D010C945D0148
:1000C0000C945D010C945D010C945D010C945D0138
:1000D0000C945D010C945D010C945D010C945D0128
:1000E0000C945D0107050A05FD04010541050E0597
:1000F000120518051C05200526052A052E054105B3
:10010000340538053C050C942E050C9412050C940E
:100110000A050C9426050C940E050C9434050C94D9
:100120001C050C943C050C9438050C9441050C946A
:10013000A4010C9418050C9407050C94FD040C9470
:1001400020050C942A050C9401050C94AD010000C7
:10015000090A02080B0C0D07060304010000000049
:10016000000000000000000000000000000000008F
:100170000000000000000000000011100F0000004F
:10018000000000000000000000000000000000006F
:10019000000000000102102020080810204010205C
:1001A000408002010201080402010102040810203B
:1001B0004080804020100804020180040201804039
:1001C00020100804020108040201010204081020A2
:1001D0004080010204081020408005050505070540
:1001E00008080808020202020A0A080804040404B3
:1001F00001010101010101010303030303030303DF
:10020000040707070C0C0C0C0C0C0C0C020202026D
:1002100006060606060606060B0B0B0B0B0B0B0B56
:1002200000002200250028002B002E0031003400A1
:1002300002010000050108010B010000210024005B
:1002400027002A002D0030003300010100000401C6
:1002500007010A01A401AD0111241FBECFEFD1E2B5
:10026000DEBFCDBF00E00CBF12E0A0E0B2E0EEEFD9
:10027000FDE000E00BBF02C007900D92A630B10771
:10028000D9F722E0A6E0B2E001C01D92A832B20781
:10029000E1F711E0CBE2D1E000E006C021970109CF
:1002A000802FFE010E94E506CA32D10780E00807D0
:1002B000A9F70E94A8020C94DB060C94000086E0CB
:1002C00092E00E94C90286E092E00C944C038F9267
:1002D0009F92AF92BF92CF92DF92EF92FF92CF9315
:1002E000DF934B015C01C0E0D0E0C42ED12CE12CA7
:1002F000F12C86E092E00E94EC04C817D90788F43C
:10030000A5019401BE0186E092E00E94710486E09E
:1003100092E00E944C03C701B6010E942002219680
:10032000E8CFDF91CF91FF90EF90DF90CF90BF901B
:10033000AF909F908F90089540E06FEF80E00E9413
:10034000DD044AE00C94670122E530E046E06CE011
:1003500070E086E092E00C94490486E092E00C9410
:10036000B5021F920F920FB60F9211242F933F9355
:100370008F939F93AF93BF9380911C0290911D0226
:10038000A0911E02B0911F0230911B0223E0230FA7
:100390002D3720F40196A11DB11D05C026E8230FBD
:1003A0000296A11DB11D20931B0280931C02909305
:1003B0001D02A0931E02B0931F0280912002909113
:1003C0002102A0912202B09123020196A11DB11D2C
:1003D0008093200290932102A0932202B0932302E3
:1003E000BF91AF919F918F913F912F910F900FBE31
:1003F0000F901F9018953FB7F8948091200290912C
:100400002102A0912202B091230226B5A89B05C02B
:100410002F3F19F00196A11DB11D3FBFBA2FA92F83
:10042000982F8827820F911DA11DB11DBC01CD0100
:1004300042E0660F771F881F991F4A95D1F70895EC
:10044000CF92DF92EF92FF92CF93DF936B017C010B
:100450000E94FB01EB01C114D104E104F10479F025
:100460000E94FB016C1B7D0B683E7340A0F381E092
:10047000C81AD108E108F108C851DC4FECCFDF9170
:10048000CF91FF90EF90DF90CF900895789484B54E
:10049000826084BD84B5816084BD85B5826085BD80
:1004A00085B5816085BDEEE6F0E080818160808366
:1004B000E1E8F0E010828081826080838081816049
:1004C0008083E0E8F0E0808181608083E1EBF0E010
:1004D000808184608083E0EBF0E0808181608083B4
:1004E000E1E9F0E0808182608083808181608083A7
:1004F000E0E9F0E0808181608083E1EAF0E08081E2
:1005000082608083808181608083E0EAF0E0808186
:1005100081608083E1E2F1E080818260808380817C
:1005200081608083E0E2F1E0808181608083EAE79E
:10053000F0E080818460808380818260808380811C
:10054000816080838081806880831092C1000895DB
:100550000E9446020E945F01C0E0D0E00E949C0120
:100560002097E1F30E940000F9CFCF93DF93EC01D5
:1005700088859985009711F00E9443068E8187FD3A
:1005800005C060E0DF91CF910C944205DF91CF91DF
:100590000895CF93DF93EC018E8187FD07C061E062
:1005A0000E94420560E08E810E947E0581E0898381
:1005B000DF91CF910895EF92FF920F931F93CF9306
:1005C000DF93EC017B0188859985009711F00E94EB
:1005D00043069D858A85981719F084E090E002C053
:1005E00083E090E08E9D80018F9D100D9E9D100DEB
:1005F00011241D830C83C8010E94AE05998788874A
:10060000009741F0A80160E070E00E94DE06FB82E6
:10061000EA8204C01D821C821B821A82DF91CF9164
:100620001F910F91FF90EF900895FC0131E09585A7
:100630008285981330E0CB0126E0969587952A9520
:10064000E1F7282F23702587CB0144E09695879505
:100650004A95E1F783708287AB0156954795569589
:10066000479543704387962F9370948791E06F3F2F
:10067000710511F008F090E0908340855185452B7D
:1006800051F091E0281390E0931729F06281738173
:10069000CF010C94DB020895CF92DF92EF92FF928C
:1006A0000F931F93CF93DF93CDB7DEB729970FB684
:1006B000F894DEBF0FBECDBF8C01DC0118968D9182
:1006C0009C911997892B09F4A3C00E94FB01F801A2
:1006D000C684D784E088F188DC01CB018C199D09A0
:1006E000AE09BF098C329140A105B10570F3F894B1
:1006F000D80114968D919C9115979A8389831896A9
:10070000ED91FC9119977F01BFEFEB1AFB0A8081F5
:100710008987F80190810288F389E02DD8015496E9
:100720008C91992309F430C09081982B98879081FF
:10073000809589238F838F818E8388E08D83588570
:100740006F8149853D812E8189819A81D7015083AE
:1007500047FD252F3A952083262F39F0441F00C0EE
:1007600000006083000000C0F2CF38E04D9160834C
:100770000000019761F7D8015396FC93EE935297CE
:1007800049873D832E833AC09081982B988790812A
:10079000809589238F838F818C8388E08B83588514
:1007A0006F8149853B812C8189819A81D701508352
:1007B00047FD252F00C000C0208300C000C000C03E
:1007C00000C000C060830000262F3A9541F0441F0E
:1007D000000000C000C000C000C000C0E8CF38E08A
:1007E0004D9100C0608300C0019709F7D80153966E
:1007F000FC93EE93529749873B832C839A8389839A
:1008000078940E94FB01F80166877787808B918B33
:1008100029960FB6F894DEBF0FBECDBFDF91CF9102
:100820001F910F91FF90EF90DF90CF9008951F934D
:10083000CF93DF93EC01162F8981882331F08E81CD
:1008400087FD03C060E00E9442051E8389818823E2
:1008500041F061E0812F0E94420560E0812F0E94FB
:100860007E05812F90E0FC01E652FE4FE491F0E01E
:10087000EE0FFF1FE05EFD4F259134913B8B2A8BDD
:10088000FC01EC56FE4FE491EC8BDF91CF911F9170
:100890000895EF92FF920F931F93CF93DF931F92D0
:1008A000CDB7DEB77C018B01FC0111821782118666
:1008B000108616861786108A118AB90149830E940C
:1008C0001503B801C7010E94DB024981642FC701EB
:1008D0000F90DF91CF911F910F91FF90EF900C94AB
:1008E00017048F929F92AF92BF92CF92DF92EF92B6
:1008F000FF920F931F93CF93DF93FC01828193812B
:100900006817790708F04CC04A01AA24BB24B82D07
:10091000C32ED42EE52EFF24AC2D922F8781882361
:1009200061F0889E40011124B92DC89E60011124F8
:10093000AD2D289FE00111249D2FD584C285E08430
:10094000F184DC1208C09B01220F331F620F731F5A
:100950006E0D7F1D16C0660F771F660F771F6E0D19
:100960007F1D052F112722273327EB01CD0DD11D28
:10097000882329F0089F90011124232F01C0202FE4
:1009800028838285EB01C80FD11DB8838385EB01D5
:10099000C80FD11DA8838485FB01E80FF11D90834A
:1009A000DF91CF911F910F91FF90EF90DF90CF904B
:1009B000BF90AF909F908F9008950F931F93962FA5
:1009C00050E060E070E0592B8A019B01282BC9019F
:1009D000B8011F910F910895FC01828193810895C0
:1009E00090E0FC013197E131F10508F04AC0882719
:1009F000EE58FF4F8F4F0C94E506809180008F7763
:100A000003C0809180008F7D80938000089584B51D
:100A10008F7702C084B58F7D84BD08958091B0002A
:100A20008F7703C08091B0008F7D8093B0000895D0
:100A3000809190008F7707C0809190008F7D03C0D8
:100A400080919000877F8093900008958091A0000E
:100A50008F7707C08091A0008F7D03C08091A00098
:100A6000877F8093A0000895809120018F7707C031
:100A7000809120018F7D03C080912001877F80932A
:100A800020010895CF93DF9390E0FC01EC56FE4FD8
:100A90002491FC01E652FE4F8491882361F190E09D
:100AA000880F991FFC01E65CFD4FC591D491FC01B4
:100AB000E05EFD4FA591B491611109C09FB7F89414
:100AC0008881209582238883EC912E230BC062308D
:100AD00061F49FB7F8943881822F809583238883AF
:100AE000EC912E2B2C939FBF06C08FB7F894E88112
:100AF0002E2B28838FBFDF91CF9108951F93CF9323
:100B0000DF93282F30E0F901E25BFE4F8491F90179
:100B1000EC56FE4FD491F901E652FE4FC491CC231E
:100B2000C9F0162F81110E94F004EC2FF0E0EE0FB7
:100B3000FF1FE05EFD4FA591B4918FB7F89411119E
:100B400005C09C91ED2FE095E92302C0EC91ED2BBF
:100B5000EC938FBFDF91CF911F910895CF93DF93D7
:100B60008230910510F482E090E0E0912602F0914D
:100B7000270220E030E0C0E0D0E0309711F1408162
:100B8000518148175907C0F04817590761F482810D
:100B90009381209719F09B838A832BC0909327021F
:100BA0008093260226C02115310519F042175307FC
:100BB00018F49A01BE01DF01EF010280F381E02DFC
:100BC000DCCF2115310509F1281B390B2430310503
:100BD00090F412968D919C9113976115710521F0F7
:100BE000FB019383828304C09093270280932602A3
:100BF000FD01329644C0FD01E20FF31F81939193F2
:100C0000225031092D933C933AC020912402309117
:100C10002502232B41F420910202309103023093EC
:100C20002502209324022091000230910102211517
:100C3000310541F42DB73EB74091040250910502B1
:100C4000241B350BE0912402F0912502E217F307F3
:100C5000A0F42E1B3F0B2817390778F0AC014E5F2C
:100C60005F4F2417350748F04E0F5F1F5093250242
:100C7000409324028193919302C0E0E0F0E0CF0121
:100C8000DF91CF9108950F931F93CF93DF93009738
:100C900009F48CC0FC013297138212820091260263
:100CA000109127020115110581F420813181820FF5
:100CB000931F20912402309125022817390779F5D6
:100CC000F0932502E093240271C0D80140E050E087
:100CD000AE17BF0750F412962D913C911397AD01BA
:100CE0002115310509F1D901F3CF9D01DA013383D3
:100CF000228360817181860F971F8217930769F4A1
:100D0000EC0128813981260F371F2E5F3F4F318339
:100D100020838A819B8193838283452B29F4F093DE
:100D20002702E093260242C01396FC93EE9312979B
:100D3000ED01499159919E01240F351FE217F307E8
:100D400071F480819181840F951F029611969C9376
:100D50008E938281938113969C938E931297E0E0F9
:100D6000F0E0D80112968D919C911397009719F09D
:100D7000F8018C01F6CF8D919C9198012E5F3F4F29
:100D8000820F931F209124023091250228173907E2
:100D900069F4309729F4109227021092260202C0BB
:100DA000138212821093250200932402DF91CF91C7
:100DB0001F910F910895F8940C94ED06DC0101C089
:100DC0006D9341505040E0F70895EE0FFF1F881FCC
:100DD0008BBF0790F691E02D199411E0CBE2D1E0A2
:100DE00000E006C0802FFE010E94E5062196011D4D
:0E0DF000CC32D10780E00807A9F7F894FFCFB6
:060DFE0000002802800045
:00000001FF
